:020000040800F2
:10000000500B0020C9010008D1010008D3010008ED
:10001000D5010008D7010008D90100080000000040
:10002000000000000000000000000000DB010008EC
:10003000DD01000800000000DF0100088901000860
:10004000E3010008E3010008E3010008E301000800
:10005000E3010008E3010008E3010008E3010008F0
:10006000E3010008E3010008E3010008E3010008E0
:10007000E3010008E3010008E3010008E3010008D0
:10008000E3010008E3010008E3010008E3010008C0
:10009000E3010008E3010008E3010008E3010008B0
:1000A000E3010008E3010008E3010008E3010008A0
:1000B000E3010008E3010008E3010008E301000890
:1000C000E3010008E3010008E3010008E301000880
:1000D000E3010008E3010008E3010008E301000870
:1000E000E3010008E3010008E301000800F002F862
:1000F00000F03AF80AA090E8000C82448344AAF188
:100100000107DA4501D100F02FF8AFF2090EBAE885
:100110000F0013F0010F18BFFB1A43F0010318473B
:10012000AC050000CC050000103A24BF78C878C1A7
:10013000FAD8520724BF30C830C144BF04680C60ED
:10014000704700000023002400250026103A28BF35
:1001500078C1FBD8520728BF30C148BF0B60704739
:100160001FB51FBD10B510BD00F051F81146FFF7C7
:10017000F7FF00F073F900F06FF803B4FFF7F2FF38
:1001800003BC00F077F8000072B62DE9F00F0D48BF
:100190000168C1F800D049680160D1F800D0BDE81D
:1001A000F00F62B6704707480268D2F800D0BDE889
:1001B000F00F0FBC5DF804CB01B05DF804EB01B0AB
:1001C00062B6704728050020094880470948004763
:1001D000FEE7FEE7FEE7FEE7FEE7FEE7FEE7FEE7F7
:1001E000FEE7FEE704480549054A064B7047000054
:1001F000B1030008ED00000850050020500B00205E
:100200005007002050070020704770477047754620
:1002100000F02CF8AE4605006946534620F0070072
:10022000854618B020B5FFF7DDFFBDE820404FF050
:1002300000064FF000074FF000084FF0000BAC46EF
:10024000ACE8C009ACE8C009ACE8C009ACE8C0093A
:1002500021F007018D46704710B50446AFF30080CA
:100260002046BDE81040FFF788BF000000487047F7
:100270001000002001491820ABBEFEE72600020056
:100280007047000080B500F001F880BD84B0002008
:100290000390029041F20001C4F20201086840F4A8
:1002A00080300860FFE741F20000C4F202000068FD
:1002B00000F400300290039801300390FFE70299A8
:1002C0000020019039B9FFE70398B0F5A06018BF8E
:1002D00001200190FFE70198C0070028E3D1FFE764
:1002E00041F20000C4F2020000688003002803D538
:1002F000FFE70120029002E000200290FFE7029851
:10030000012851D1FFE742F20001C4F2020108685E
:1003100040F010000860086820F0070008600868D6
:1003200040F00200086041F20401C4F202010091B1
:100330000868086008680860086840F48060086021
:10034000086820F47C100860086840F4E810086031
:1003500041F20001C4F20201086840F080700860B8
:10036000FFE741F20000C4F20200006880010028AB
:1003700001D4FFE7F5E741F20401C4F20201086885
:1003800020F003000860086840F002000860FFE702
:1003900041F20400C4F20200006800F00C000828DA
:1003A00001D0FFE7F4E700E0FFE704B0704700008A
:1003B00080B541F20002C4F20202106840F0010070
:1003C000106041F20401C4F2020108680023CFF674
:1003D000FF031840086010684FF6FF73CFF6F6630E
:1003E00018401060106820F480201060086820F425
:1003F000FE00086041F20801C4F202014FF41F0040
:100400000860FFF73FFF4EF60851CEF200014FF0B3
:100410000060086080BD000082B08DF80700009188
:100420009DF9070000280AD4FFE7009800019DF914
:1004300007104EF20042CEF2000288540BE0009802
:1004400000019DF8071001F00F014EF61452CEF294
:1004500000028854FFE702B07047000080B582B008
:100460000020019000F06EF840F20000C2F200009F
:10047000006800F013F840F20400C2F200000068C7
:1004800000F00CF840F20800C2F20000006800F032
:1004900005F8642000F060F8FFE7FEE780B582B061
:1004A000019072B6019940F27000C2F20000009013
:1004B000026802EB420340F22C52C2F2000202EB4D
:1004C00083029160006800F075F80098006878B9C0
:1004D000FFE740F27000C2F20000006800EB40014C
:1004E00040F22C50C2F2000000EB8100406015E0A9
:1004F00040F27001C2F20001086800EB400240F2D5
:100500002C50C2F2000000EB820242F8082C09686D
:1005100001EB410100EB81014860FFE740F2285107
:10052000C2F2000140F22C50C2F20000086040F21A
:100530007001C2F2000108680130086062B6012053
:1005400002B080BD40F27401C2F2000141F64010D9
:10055000C0F201000860704780B582B001904EF291
:100560001001CEF200010091002008604EF2180147
:10057000CEF200010860019840F27401C2F200015D
:100580000968484301384EF21401CEF200010860B8
:100590004FF0FF300F21FFF73FFF0099086840F050
:1005A00005000860086840F002000860FFF7FBFDE6
:1005B00002B080BD81B00090009840F27802C2F293
:1005C00000024FF4C87100FB012303F5A87300EB90
:1005D000400C40F22C50C2F2000040F82C30009B3E
:1005E00003FB012C4FF08073CCF88C31009B03EBA4
:1005F000430300EB830080684068009B03FB0123FA
:10060000C3F88801009800FB01234FF01430C3F8B1
:100610008401009800FB01234FF01230C3F88001E1
:10062000009800FB01234FF00330C3F87C010098D1
:1006300000FB01234FF00230C3F87801009800FB63
:1006400001234FF00130C3F87401009800FB01232F
:100650000020C3F87001009800FB01234FF0113017
:10066000C3F86C01009800FB01234FF01030C3F871
:100670006801009800FB01234FF00930C3F86401C2
:10068000009800FB01234FF00830C3F86001009888
:1006900000FB01234FF00730C3F85C01009800FB1A
:1006A00001234FF00630C3F85801009800FB0123E6
:1006B0004FF00530C3F85401009800FB01214FF0C2
:1006C0000430C1F8500101B070470000F006000886
:1006D00000000020100000002801000800070008AA
:1006E00010000020400B0000440100080000000042
:1006F00000800008000001080080010800000000E0
:04000005080000ED02
:00000001FF
